:04100000D4EF11F028
:08100800046ED8CF05F0E0CF23
:1010100006F00001E9CF0CF0EACF07F0E1CF08F0CD
:10102000E2CF09F0D9CF0AF0DACF0BF0F3CF12F00C
:10103000F4CF13F0FACF14F0F5CF15F0F6CF16F089
:10104000F7CF17F0F8CF18F0FBCF19F000C00EF073
:1010500001C00FF002C010F003C011F0F2AA34EF8B
:1010600008F0F2B49AEF08F00EC000F00FC001F0E3
:1010700010C002F011C003F00CC0E9FF07C0EAFF86
:10108000078E08C0E1FF09C0E2FF0AC0D9FF0BC00C
:10109000DAFF12C0F3FF13C0F4FF14C0FAFF15C04B
:1010A000F5FF16C0F6FF17C0F7FF18C0F8FF19C00C
:1010B000FBFF045006C0E0FF05C0D8FF1000F76A30
:1010C000D20FF66E100EF722000EF86E0900F550E2
:1010D0001200037C027C017C007CF76AEE0FF66E46
:1010E000100EF722000EF86E0900F55012003F06B0
:1010F0005B4F666D7D077F67F76A0C0FF66E110E0A
:10110000F722000EF86E0900F550120001000000F1
:101110000A00000064000000E8030000102700003F
:10112000A086010040420F008096980000E1F5057E
:1011300000CA9A3B010E1B26D8B01C2AD8B41D2A1F
:10114000D8B41E2AF40ED76E480ED66EF29434EF41
:1011500008F04A6603D04B6602D007D04B2A49C03C
:10116000EEFF4A2EFCD74B2EFAD77DEF0CF04950FC
:10117000B608496E036A4AC04DF04A8ED8904A328A
:101180004B324C320332023201320032492EF6D752
:101190004DAE0BD0001E011E021E031E002AD8B445
:1011A000012AD8B4022AD8B4032A12004EC055F03E
:1011B0005250551A55AE05D0D894D8904EBED8800E
:1011C0002FD04EC055F051C056F04D50565E06E03F
:1011D00055AE26D0D850010AD86E22D052C056F053
:1011E0004E50565E06E055AE1BD0D850010AD86E60
:1011F00017D053C056F04F50565E06E055AE10D093
:10120000D850010AD86E0CD054C056F05050565EDB
:1012100006E055AE05D0D850010AD86E01D0D8905E
:101220001200556A566A010E576EDA6AD96A5A6A0E
:101230004D0E596EEA6A510EE96E5AC0E2FF59C06E
:10124000E1FF57C058F0D890E550EE02F350552218
:10125000F4505622582EF7D755C0DEFF56C055F031
:10126000566AD8B0562A592AD8B45A2A572A5750FB
:101270000508E0E1FFEF0CF0B60E006E036A026AAB
:10128000016A4D904CAE0CD04D80491E4A1E4B1E3B
:101290004C1E492A05E14A2A03E14B2AD8B44C2ABC
:1012A00049504A104B104C1002E1006A0FD0D89000
:1012B00001BE09D049364A364B364C360336023623
:1012C0000136002EF4D7019E4DB0018E08EF0DF0CF
:1012D000B60E006E036A026A016A49504A104B104A
:1012E0004C1002E1006A0DD0D89001BE09D04936F9
:1012F0004A364B364C36033602360136002EF4D7CA
:10130000019E12004950D8B471D0006E4D50D8B42F
:101310006DD0002604E3810E002668E204D07F0E23
:10132000005E64E363E04AC051F04E50511A4A8EA9
:101330004E8E4C505002F4CF53F04B504F02F4CF2E
:1013400003F0F3CF52F05002F3505326F4505222E0
:10135000000E03224C504F02F3505326F4505222F9
:10136000000E026A032202224A505002F350522613
:10137000F4500322000E02224A504F02F35003267B
:10138000F4500222000E016A01224C504E02F3502A
:101390005226F4500322000E022201224B504E022C
:1013A000F3500326F4500222000E01224A504E024E
:1013B000F3500226F4500122002A01BE05D0523615
:1013C0000336023601360006000E52AE0AD0032A5A
:1013D00002220122015005E1025003E1035001E124
:1013E000002A51BE018E51AE019E04D0006A016AEE
:1013F000026A036A12008E0E006E4950005E4AC0F7
:1014000002F04BC001F0028E005209E0D890025267
:1014100002E1015204E002320132002EF7D74AAE57
:1014200005D0011E021E012AD8B4022A1200D8B229
:1014300003D0EA6A590EE96E006A016A026A036A19
:10144000596A5A6A5B6A5C6A5850571056105510B0
:101450002CE0200E5D6ED8905136523653365436FD
:1014600059365A365B365C3658505C5C08E157504A
:101470005B5C05E156505A5C02E15550595C0FE344
:101480005550595E5650D8A0563C5A5E5750D8A079
:10149000573C5B5E5850D8A0583C5C5ED880003604
:1014A0000136023603365D2ED6D759C0EFFF5AC03B
:1014B000ECFF5BC0ECFF5CC0ECFF32EF0EF0016AAA
:1014C000026A006A036A4E5002E14D5018E0100EA5
:1014D0004F6ED8904B364C36003603364E50035C78
:1014E00002E14D50005C07E34D50005ED8A00306BA
:1014F0004E50035ED880013602364F2EEAD71200D6
:10150000D8B203D0EA6A590EE96E54505818800BCD
:101510005E6E54AE0BD0511E521E531E541E512AE5
:10152000D8B4522AD8B4532AD8B4542A58AE0BD0BF
:10153000551E561E571E581E552AD8B4562AD8B4C2
:10154000572AD8B4582A006A016A026A036A596A9B
:101550005A6A5B6A5C6A58505710561055102CE056
:10156000200E5D6ED8905136523653365436593669
:101570005A365B365C3658505C5C08E157505B5C11
:1015800005E156505A5C02E15550595C0FE3555045
:10159000595E5650D8A0563C5A5E5750D8A0573C7A
:1015A0005B5E5850D8A0583C5C5ED880003601364F
:1015B000023603365D2ED6D75EAE0BD0001E011E5E
:1015C000021E031E002AD8B4012AD8B4022AD8B4B5
:1015D000032A59C0EFFF5AC0ECFF5BC0ECFF5CC0B0
:1015E000ECFF12008E0E006E4AC001F049C002F0FE
:1015F000036A015209E102C001F0026A080E005EAE
:10160000015202E1006A08D0D89001BE04D002362F
:1016100001360006F9D7019E1200800ED8B2521A88
:10162000576A586A4EC056F05250561A4D50D8B4A8
:10163000DCD0556E006E5150D8B4E0D0555ED8B4B1
:1016400081D03DE352C05BF05B8E53C05AF054C072
:1016500059F0586AD8905B325A3259325832552E66
:10166000F8D756AE03D05780DDD0579055905788A5
:10167000EA6A500EE96EE9D0579856BE0AD055A0D6
:1016800013D05B325A3259325832002AD8B4C5D0FE
:101690000BD05BBE0CD0D890583659365A365B36D4
:1016A0000006D8B4BAD0F5D7578C6BD0579C4EC033
:1016B00056F04EAE02D05B8EA9D05B9EA7D051C033
:1016C00055F051C000F04D50555E4EC05BF05B8E42
:1016D0004FC05AF050C059F0586AD8905B325A3215
:1016E00059325832552EF8D756AE03D057829AD079
:1016F00057925590578AEA6A540EE96EA6D0579AC7
:1017000056BE0AD055A013D05B325A3259325832E5
:10171000002AD8B482D00BD05BBE0CD0D8905836FB
:1017200059365A365B360006D8B477D0F5D7578E7F
:1017300028D0579E52C056F052AE02D05B8E66D073
:101740005B9E64D052C05BF05B8E53C05AF054C0B5
:1017500059F056AE04D05B9E578464D05794586AB3
:101760005590EA6A500EE96E70D056BE1CD04EC03D
:1017700056F055A006D05B325A3259325832002A00
:101780004CE058AE0BD0592A09E15A2A07E15B2AEE
:1017900005E15B325A325932002A3FE057BC86D706
:1017A00057BEC7D71CD0800E5B1A5BAE04D03AD0B0
:1017B00052C056F00AD04EC056F05B5206E15A5263
:1017C00004E1595202E1006A21D05BBE08D0D890F2
:1017D000583659365A365B36002EF7D71ED056AEDD
:1017E00002D05B8E13D05B9E11D051C000F052C06E
:1017F0005BF053C05AF054C059F008D04DC000F00F
:101800004EC05BF04FC05AF050C059F05BC001F0C1
:101810005AC002F059C003F034D0006A016A026A6B
:10182000036A2FD0586A591E5A1E5B1E581E582A2A
:1018300005E1592A03E15A2A01E15B2A57B015D77D
:1018400057B256D757B48AD7B3D7EF50592605E3C6
:101850005A2A03E15B2AD8B45580ED52EF505A263C
:1018600003E35B2AD8B45580ED52EF50EFBE01D0B0
:10187000800A5B26D8B0558057B8FED657BA3FD7F6
:1018800074D712004B50070B006E4B30016E0132C3
:1018900001321F0E011601504D24E96E000E4E203C
:1018A000EA6E016A012A002A01D00136002EFDD716
:1018B0004C5203E00150EF1203D0011E0150EF160D
:1018C0001200EA6A490EE96EEF500EE00F0E016E4B
:1018D000006A002EFED7012EFBD78F0E006E002E61
:1018E000FED70000EF2EF2D71200EA6A300EE96E42
:1018F000496A4B6A040E4A6E2CD445C04CF044C071
:101900004BF043C04AF042C049F031DC03C039F02B
:1019100002C038F001C037F000C036F045C050F0CA
:1019200044C04FF043C04EF042C04DF0546A536A79
:10193000526A516A3BDC34E3506A4F6A4E6A4D6A20
:1019400045C054F044C053F043C052F042C051F07F
:101950002DDC0AE345C04CF044C04BF043C04AF0D4
:1019600042C049F004DC12D042C000F04350800A6B
:10197000016E44C002F045C003F045C04CF044C0C5
:101980004BF04A6E42C049F0B7EC08F003C039F0A2
:1019900002C038F001C037F000C036F0298401D011
:1019A0002994040ED88048544A6E000E29B4010EC2
:1019B0004A5C356E29A442D03550040DF350036AB9
:1019C0007CEC08F0006E0900F5CF01F00900F5CFBE
:1019D00002F00900F5CF03F003C04CF002C04BF059
:1019E00001C04AF0496E03C050F002C04FF001C080
:1019F0004EF04D6E546853685268516812D403C05B
:101A00004CF002C04BF001C04AF000C049F034D4A1
:101A100003C050F002C04FF001C04EF000C04DF0C6
:101A200045C054F044C053F043C052F042C051F09E
:101A3000D6EC08F0000ED8B0010E2DD03550040DB4
:101A4000F350036A7CEC08F0006E0900F5CF01F05A
:101A50000900F5CF02F00900F5CF03F003C04CF008
:101A600002C04BF001C04AF0496E32DC45C050F074
:101A700044C04FF043C04EF042C04DF003C054F09C
:101A800002C053F001C052F000C051F0D6EC08F093
:101A9000000ED8B0010E2996E8B029864852D8B475
:101AA000E9D04850040DF350036A7CEC08F0006E56
:101AB0000900F5CF01F00900F5CF02F00900F5CFDC
:101AC00003F003C04CF002C04BF001C04AF0496E75
:101AD00068EC09F045C04CF044C04BF043C04AF0FC
:101AE00042C049F003C050F002C04FF001C04EF0B8
:101AF00000C04DF007DC00C049F001C04AF002C050
:101B00004BF003C04CF0506A4F6A4E6A4D6A03C0F6
:101B100054F002C053F001C052F000C051F0D6ECB6
:101B200008F038E34850040DF350036A7CEC08F0E9
:101B3000006E0900F5CF01F00900F5CF02F00900B1
:101B4000F5CF03F003C04CF002C04BF001C04AF0E7
:101B5000496E68EC09F045C04CF044C04BF043C0FE
:101B60004AF042C049F003C050F002C04FF001C03B
:101B70004EF000C04DF082EC09F003C04CF002C002
:101B80004BF001C04AF000C049F035DC02C003F060
:101B900001503AD04850040DF350036A7CEC08F031
:101BA000006E0900F5CF01F00900F5CF02F0090041
:101BB000F5CF03F003C04CF002C04BF001C04AF077
:101BC000496E68EC09F045C04CF044C04BF043C08E
:101BD0004AF042C049F003C050F002C04FF001C0CB
:101BE0004EF000C04DF082EC09F00150800A016E09
:101BF00003C04CF002C04BF04A6E00C049F0FBEC51
:101C000009F002C003F001503E6E03C03FF048509F
:101C1000040DF350036A7CEC08F0006E0900F5CF68
:101C200001F00900F5CF02F00900F5CF03F003C081
:101C30004CF002C04BF001C04AF0496ED882EA6A0B
:101C40004D0EE96E546A536A3FC052F03EC051F0E7
:101C500003C058F002C057F001C056F000C055F064
:101C600017EF0AF04EC03FF04DC03EF03FC041F0CC
:101C70003EC040F029A62CD2346A485244E0485075
:101C8000345C41E2036A3450300FE96E000E0320E9
:101C9000EA6E3FC04CF03EC04BF04E6A0A0E4D6EED
:101CA0000EDC00C04BF003C04CF04B5202E14C5232
:101CB0000BE03FC04CF03EC04BF04E6A0A0E4D6E3A
:101CC0005FEC0AF0005010D03FC04CF03EC04BF02B
:101CD0004E6A0A0E4D6E5FEC0AF00050FF0A010FCB
:101CE000006E000E03560050EF6E3FC04CF03EC039
:101CF0004BF04E6A0A0E4D6E5FEC0AF002C03FF0E8
:101D000001C03EF043D0036A3450300F016E000E24
:101D1000032201C049F003C04AF0EACF4CF0E9CFFA
:101D20004BF0D882EA6A4D0EE96E39C054F038C0E3
:101D300053F037C052F036C051F0586A576A566AAD
:101D40000A0E556E80EC0AF04CC0EAFF4BC0E9FF6A
:101D50004AC0EAFF49C0E9FF4DC0EFFFD89239C041
:101D600054F038C053F037C052F036C051F0586AC2
:101D7000576A566A0A0E556E80EC0AF003C039F0B5
:101D800002C038F001C037F000C036F0342A39BE46
:101D90000DD03952D8A471D73852D8A46ED7375243
:101DA000D8A46BD736500008D8A067D73E52D8A425
:101DB00064D73F52D8A461D7506A4F6A4E6A4D6AC1
:101DC00045C054F044C053F043C052F042C051F0FB
:101DD000D6EC08F00BE345C04CF044C04BF043C0D8
:101DE0004AF042C049F0B7EC08F012D042C000F00F
:101DF0004350800A016E44C002F045C003F045C064
:101E00004CF044C04BF04A6E42C049F0B7EC08F0C9
:101E100003C039F002C038F001C037F000C036F01E
:101E200029A4ADD03652D8A4AAD03752D8A4A7D06E
:101E30003852D8A4A4D03952D8A4A1D0485001080F
:101E4000D8B09DD04A6A48C049F0F2EC0AF003C00D
:101E50004CF002C04BF001C04AF000C049F0506A9B
:101E60004F6A4E6A7E0E4D6E82EC09F000C049F05A
:101E700001C04AF002C04BF003C04CF0506A4F6AF8
:101E80004E6A4D6A03C054F002C053F001C052F0D4
:101E900000C051F0D6EC08F001E238E14A6A48C0CF
:101EA00049F0F2EC0AF003C04CF002C04BF001C064
:101EB0004AF000C049F0506A4F6A4E6A7E0E4D6E7D
:101EC00082EC09F000C049F001C04AF002C04BF0BA
:101ED00003C04CF0D89203C050F002C04FF001C0D4
:101EE0004EF000C04DF0546A536A526A7E0E516E35
:101EF0000DEC0BF003C04CF002C04BF001C04AF0F7
:101F000000C049F0FBEC09F0015037D04A6A48C0E4
:101F100049F0F2EC0AF003C04CF002C04BF001C0F3
:101F20004AF000C049F0506A4F6A4E6A7E0E4D6E0C
:101F300082EC09F000C049F001C04AF002C04BF049
:101F400003C04CF0D88203C050F002C04FF001C073
:101F50004EF000C04DF0546A536A526A7E0E516EC4
:101F60000DEC0BF003C04CF002C04BF001C04AF086
:101F700000C049F0FBEC09F00150485CA8D039BE24
:101F80000BD0395207E1385205E1375203E13650A0
:101F9000000802E2000E9BD04A6A48C049F0F2EC09
:101FA0000AF003C04CF002C04BF001C04AF000C080
:101FB00049F0506A4F6A4E6A7E0E4D6E82EC09F00F
:101FC00000C049F001C04AF002C04BF003C04CF021
:101FD000506A4F6A4E6A4D6A03C054F002C053F013
:101FE00001C052F000C051F0D6EC08F001E238E137
:101FF0004A6A48C049F0F2EC0AF003C04CF002C053
:102000004BF001C04AF000C049F0506A4F6A4E6A76
:102010007E0E4D6E82EC09F000C049F001C04AF01E
:1020200002C04BF003C04CF0D89203C050F002C085
:102030004FF001C04EF000C04DF0546A536A526A2E
:102040007E0E516E0DEC0BF003C04CF002C04BF055
:1020500001C04AF000C049F0FBEC09F0015037D054
:102060004A6A48C049F0F2EC0AF003C04CF002C0E2
:102070004BF001C04AF000C049F0506A4F6A4E6A06
:102080007E0E4D6E82EC09F000C049F001C04AF0AE
:1020900002C04BF003C04CF0D88203C050F002C025
:1020A0004FF001C04EF000C04DF0546A536A526ABE
:1020B0007E0E516E0DEC0BF003C04CF002C04BF0E5
:1020C00001C04AF000C049F0FBEC09F00150342691
:1020D0003B6A3A6A3B5230E13A5003082DE3000E66
:1020E00029A0010E496E956A8C6ED8903A34026E22
:1020F0003B34036E02505FEC08F00900F5CF03F0AB
:10210000496E03C04AF0000E29A2010E49C04BF0EF
:102110004C6E0F0E4E6E890E4D6E42EC0CF049C0A7
:102120004BF04C6A0F0E4E6E920E4D6E42EC0CF060
:102130003A2AD8B43B2ACED747C04CF046C04BF021
:102140004E6A34C04DF05FEC0AF002C047F001C0A7
:1021500046F0465205E1475203E1476A010E466EDA
:102160003D6A3C6A3D50475CD8A01CD104E1465012
:102170003C5CD8B017D129A6B1D03B6A3A6A29A4F1
:1021800003D0036A010E02D0036A000E3424016EEC
:10219000000E03223B50035CD8A09FD004E1015005
:1021A0003A5CD8B09AD0D8903A34026E3B34036E81
:1021B00002505FEC08F00900F5CF03F0496E03C050
:1021C0004AF0000E29B2010E49C04BF04C6E0F0EC2
:1021D0004E6E890E4D6E42EC0CF049C04BF04C6ACD
:1021E0000F0E4E6E920E4D6E42EC0CF034503A5C77
:1021F0000AE13B5208E129A406D0396A386A376AF5
:10220000400E366E25D0300E3A24E96E000E3B208B
:10221000EA6E036AEF506DEC08F0496E48503A5C84
:102220000AE13B5208E1485206E0800E006E016A66
:10223000026A036A04D0006A016A026A036A0050F3
:102240004910366E01C037F002C038F003C039F0D3
:1022500029A009D036C000F037C001F038C002F024
:1022600039C003F00CD036C000F0001E37C001F0BA
:10227000011E38C002F0021E39C003F0031E956A29
:1022800000C08CFF010E496E61EC0CF0D8903A341E
:10229000026E3B34036E02505FEC08F00900F5CF8C
:1022A00003F0496E03C04AF0000E29A2010E49C096
:1022B0004BF04C6E0F0E4E6E890E4D6E42EC0CF0D4
:1022C00049C04BF04C6A0F0E4E6E920E4D6E42ECB2
:1022D0000CF03A2AD8B43B2A52D760D0476A010E94
:1022E000466E3B6A3A6A3B5259E13A50030856E35C
:1022F000D8903A34026E3B34036E02505FEC08F023
:102300000900F5CF03F0496E03C04AF0000E29B270
:10231000010E49C04BF04C6E0F0E4E6E890E4D6E85
:1023200042EC0CF049C04BF04C6A0F0E4E6E920E10
:102330004D6E42EC0CF029A003D0036A400E01D090
:10234000BF0E956A8C6E010E496E61EC0CF0D89050
:102350003A34026E3B34036E02505FEC08F0090021
:10236000F5CF03F0496E03C04AF0000E29A2010E1A
:1023700049C04BF04C6E0F0E4E6E890E4D6E42EC06
:102380000CF049C04BF04C6A0F0E4E6E920E4D6E23
:1023900042EC0CF03A2AD8B43B2AA5D73C2AD8B450
:1023A0003D2AE0D63AEF12F0F86AD09E078E0E0171
:1023B000550EA76EAA0EA76EBF91140EF76F060EEC
:1023C000D36F550EA76EAA0EA76EBF81AE0E006E1C
:1023D0000F0E016E020EE96E000EEA6EEE6A002E1E
:1023E000FDD7012EFBD7EA6AE96A29802992660E99
:1023F0002D6E2C6E860E2B6E800E2A6E180E2F6E92
:102400006D0E2E6E356A3B6A3A6A3D6A3C6A416AD5
:10241000406A299429960101886BFF0E0F01486FCD
:10242000C29CC29E4951E00B1F09496F256BD16ABE
:10243000D26A1F6A206A216A226A236A246A9B8CF4
:10244000810ED56EF40ED76E480ED66EF28A000E4F
:10245000956E926E420E456E600E446EE50E436EB2
:10246000780E426E476A050E466E020E486E0001F7
:1024700075EF0CF0D8922DC050F02CC04FF02BC04F
:102480004EF02AC04DF00A0E546ED70E536E230E36
:10249000526E780E516E0DEC0BF003C02DF002C0A1
:1024A0002CF001C02BF000C02AF00F01D3D703009D
:020000040001F9
:08FFF8009AF73DFF61F880F962
:00000001FF
;PIC18F47J53
;CRC=CA70  CREATED="11-dic.-15 22:33"
